00COTAHIST.2009BOVESPA 20040531                                                                                                                                                                                                                      
012009021202VALE3       010VALE R DOCE ON           R$  000000001050100000000105010000000010250000000001036800000000103210000000010321000000001043800142000000000000069500000000000720641400000000000000009999123100000010000000000000BRVALEACNOR0159
012009021202VALE5       010VALE R DOCE PNA          R$  000000001000000000000100800000000009820000000000991800000000098200000000009701000000000982000306000000000000230500000000002286139000000000000000009999123100000010000000000000BRVALEACNPA3160
012009021296TMCP4F      020TELEMIG PARTPN *         R$  000000000024300000000002510000000000242000000000024300000000002510000000000242000000000025200013000000000000377522000000000000092105000000000000009999123100010000000000000000BRTMCPACNPR1105
012009021202RPSA4       010RIPASA      PN      N1   R$  000000000013000000000001330000000000128000000000013000000000001330000000000129000000000013300038000000000000603000000000000078680000000000000000009999123100000010000000000000BRRPSAACNPR6125
012009021202SULT4       010SULTEPA     PN           R$  000000000003100000000000310000000000030000000000003000000000000300000000000028000000000003000007000000000000017000000000000000517000000000000000009999123100000010000000000000BRSULTACNPR9119
012009021202CBEE3       010CERJ        ON *I02      R$  000000000002400000000000240000000000024000000000002400000000000240000000000024000000000002700008000000000052000000000000000001248000000000000000009999123100010000000000000000BRCBEEACNOR3139
012009021202ELPL4       010ELETROPAULO PN *         R$  000000000228900000000023490000000002250000000000229700000000022500000000002250000000000230000205000000000064360000000000000147838690000000000000009999123100010000000000000000BRELPLACNPR6111
012009021202SLED4       010SARAIVA LIVRPN           R$  000000000088400000000008840000000000884000000000088400000000008840000000000870000000000094000001000000000000442200000000000390904800000000000000009999123100000010000000000000BRSLEDACNPR7136
012009021202ITSA4       010ITAUSA      PN      N1   R$  000000000019000000000001910000000000186000000000018800000000001890000000000189000000000019100177000000000001918000000000000362405000000000000000009999123100000010000000000000BRITSAACNPR7268
012009021296TBLE3F      020TRACTEBEL   ON *         R$  000000000034500000000003450000000000320000000000032000000000003200000000000320000000000033800007000000000000048943000000000000015660000000000000009999123100010000000000000000BRTBLEACNOR2102
012009021296SBSP3F      020SABESP      ON *    NM   R$  000000000845400000000090000000000008454000000000864800000000090000000000008920000000000900000031000000000000096513000000000000837645000000000000009999123100010000000000000000BRSBSPACNOR5125
99COTAHIST.2007BOVESPA 2004053100000000553                                                                                                                                                                                                           
